{
  "_format": "hh-sol-artifact-1",
  "contractName": "NFTMinter",
  "sourceName": "contracts/NftMinter.sol",
  "abi": [
    {
      "inputs": [
        {
          "internalType": "address",
          "name": "_admin",
          "type": "address"
        }
      ],
      "stateMutability": "nonpayable",
      "type": "constructor"
    },
    {
      "anonymous": false,
      "inputs": [
        {
          "indexed": true,
          "internalType": "address",
          "name": "owner",
          "type": "address"
        },
        {
          "indexed": true,
          "internalType": "address",
          "name": "approved",
          "type": "address"
        },
        {
          "indexed": true,
          "internalType": "uint256",
          "name": "tokenId",
          "type": "uint256"
        }
      ],
      "name": "Approval",
      "type": "event"
    },
    {
      "anonymous": false,
      "inputs": [
        {
          "indexed": true,
          "internalType": "address",
          "name": "owner",
          "type": "address"
        },
        {
          "indexed": true,
          "internalType": "address",
          "name": "operator",
          "type": "address"
        },
        {
          "indexed": false,
          "internalType": "bool",
          "name": "approved",
          "type": "bool"
        }
      ],
      "name": "ApprovalForAll",
      "type": "event"
    },
    {
      "anonymous": false,
      "inputs": [
        {
          "indexed": true,
          "internalType": "address",
          "name": "previousOwner",
          "type": "address"
        },
        {
          "indexed": true,
          "internalType": "address",
          "name": "newOwner",
          "type": "address"
        }
      ],
      "name": "OwnershipTransferred",
      "type": "event"
    },
    {
      "anonymous": false,
      "inputs": [
        {
          "indexed": true,
          "internalType": "address",
          "name": "from",
          "type": "address"
        },
        {
          "indexed": true,
          "internalType": "address",
          "name": "to",
          "type": "address"
        },
        {
          "indexed": true,
          "internalType": "uint256",
          "name": "tokenId",
          "type": "uint256"
        }
      ],
      "name": "Transfer",
      "type": "event"
    },
    {
      "inputs": [],
      "name": "Owner",
      "outputs": [
        {
          "internalType": "address",
          "name": "",
          "type": "address"
        }
      ],
      "stateMutability": "view",
      "type": "function"
    },
    {
      "inputs": [
        {
          "internalType": "uint256",
          "name": "",
          "type": "uint256"
        }
      ],
      "name": "_tokenURIs",
      "outputs": [
        {
          "internalType": "string",
          "name": "",
          "type": "string"
        }
      ],
      "stateMutability": "view",
      "type": "function"
    },
    {
      "inputs": [],
      "name": "admin",
      "outputs": [
        {
          "internalType": "address",
          "name": "",
          "type": "address"
        }
      ],
      "stateMutability": "view",
      "type": "function"
    },
    {
      "inputs": [
        {
          "internalType": "address",
          "name": "to",
          "type": "address"
        },
        {
          "internalType": "uint256",
          "name": "tokenId",
          "type": "uint256"
        }
      ],
      "name": "approve",
      "outputs": [],
      "stateMutability": "nonpayable",
      "type": "function"
    },
    {
      "inputs": [
        {
          "internalType": "address",
          "name": "owner",
          "type": "address"
        }
      ],
      "name": "balanceOf",
      "outputs": [
        {
          "internalType": "uint256",
          "name": "",
          "type": "uint256"
        }
      ],
      "stateMutability": "view",
      "type": "function"
    },
    {
      "inputs": [
        {
          "internalType": "address",
          "name": "_admin",
          "type": "address"
        }
      ],
      "name": "changeAdmin",
      "outputs": [
        {
          "internalType": "address",
          "name": "",
          "type": "address"
        }
      ],
      "stateMutability": "nonpayable",
      "type": "function"
    },
    {
      "inputs": [],
      "name": "getAllToken",
      "outputs": [
        {
          "components": [
            {
              "internalType": "uint256",
              "name": "id",
              "type": "uint256"
            },
            {
              "internalType": "string",
              "name": "uri",
              "type": "string"
            }
          ],
          "internalType": "struct NFTMinter.RenderToken[]",
          "name": "",
          "type": "tuple[]"
        }
      ],
      "stateMutability": "view",
      "type": "function"
    },
    {
      "inputs": [
        {
          "internalType": "uint256",
          "name": "tokenId",
          "type": "uint256"
        }
      ],
      "name": "getApproved",
      "outputs": [
        {
          "internalType": "address",
          "name": "",
          "type": "address"
        }
      ],
      "stateMutability": "view",
      "type": "function"
    },
    {
      "inputs": [
        {
          "internalType": "address",
          "name": "owner",
          "type": "address"
        },
        {
          "internalType": "address",
          "name": "operator",
          "type": "address"
        }
      ],
      "name": "isApprovedForAll",
      "outputs": [
        {
          "internalType": "bool",
          "name": "",
          "type": "bool"
        }
      ],
      "stateMutability": "view",
      "type": "function"
    },
    {
      "inputs": [
        {
          "internalType": "uint256",
          "name": "",
          "type": "uint256"
        }
      ],
      "name": "isCertificateValid",
      "outputs": [
        {
          "internalType": "bool",
          "name": "",
          "type": "bool"
        }
      ],
      "stateMutability": "view",
      "type": "function"
    },
    {
      "inputs": [
        {
          "internalType": "address",
          "name": "recepient",
          "type": "address"
        },
        {
          "internalType": "string",
          "name": "uri",
          "type": "string"
        }
      ],
      "name": "mintNFT",
      "outputs": [
        {
          "internalType": "uint256",
          "name": "",
          "type": "uint256"
        }
      ],
      "stateMutability": "nonpayable",
      "type": "function"
    },
    {
      "inputs": [],
      "name": "name",
      "outputs": [
        {
          "internalType": "string",
          "name": "",
          "type": "string"
        }
      ],
      "stateMutability": "view",
      "type": "function"
    },
    {
      "inputs": [],
      "name": "owner",
      "outputs": [
        {
          "internalType": "address",
          "name": "",
          "type": "address"
        }
      ],
      "stateMutability": "view",
      "type": "function"
    },
    {
      "inputs": [
        {
          "internalType": "uint256",
          "name": "tokenId",
          "type": "uint256"
        }
      ],
      "name": "ownerOf",
      "outputs": [
        {
          "internalType": "address",
          "name": "",
          "type": "address"
        }
      ],
      "stateMutability": "view",
      "type": "function"
    },
    {
      "inputs": [],
      "name": "renounceOwnership",
      "outputs": [],
      "stateMutability": "nonpayable",
      "type": "function"
    },
    {
      "inputs": [
        {
          "internalType": "address",
          "name": "from",
          "type": "address"
        },
        {
          "internalType": "address",
          "name": "to",
          "type": "address"
        },
        {
          "internalType": "uint256",
          "name": "tokenId",
          "type": "uint256"
        }
      ],
      "name": "safeTransferFrom",
      "outputs": [],
      "stateMutability": "nonpayable",
      "type": "function"
    },
    {
      "inputs": [
        {
          "internalType": "address",
          "name": "from",
          "type": "address"
        },
        {
          "internalType": "address",
          "name": "to",
          "type": "address"
        },
        {
          "internalType": "uint256",
          "name": "tokenId",
          "type": "uint256"
        },
        {
          "internalType": "bytes",
          "name": "data",
          "type": "bytes"
        }
      ],
      "name": "safeTransferFrom",
      "outputs": [],
      "stateMutability": "nonpayable",
      "type": "function"
    },
    {
      "inputs": [
        {
          "internalType": "address",
          "name": "operator",
          "type": "address"
        },
        {
          "internalType": "bool",
          "name": "approved",
          "type": "bool"
        }
      ],
      "name": "setApprovalForAll",
      "outputs": [],
      "stateMutability": "nonpayable",
      "type": "function"
    },
    {
      "inputs": [
        {
          "internalType": "bytes4",
          "name": "interfaceId",
          "type": "bytes4"
        }
      ],
      "name": "supportsInterface",
      "outputs": [
        {
          "internalType": "bool",
          "name": "",
          "type": "bool"
        }
      ],
      "stateMutability": "view",
      "type": "function"
    },
    {
      "inputs": [],
      "name": "symbol",
      "outputs": [
        {
          "internalType": "string",
          "name": "",
          "type": "string"
        }
      ],
      "stateMutability": "view",
      "type": "function"
    },
    {
      "inputs": [
        {
          "internalType": "uint256",
          "name": "CertificationID",
          "type": "uint256"
        }
      ],
      "name": "tokenURI",
      "outputs": [
        {
          "internalType": "string",
          "name": "",
          "type": "string"
        }
      ],
      "stateMutability": "view",
      "type": "function"
    },
    {
      "inputs": [
        {
          "internalType": "address",
          "name": "from",
          "type": "address"
        },
        {
          "internalType": "address",
          "name": "to",
          "type": "address"
        },
        {
          "internalType": "uint256",
          "name": "tokenId",
          "type": "uint256"
        }
      ],
      "name": "transferFrom",
      "outputs": [],
      "stateMutability": "nonpayable",
      "type": "function"
    },
    {
      "inputs": [
        {
          "internalType": "address",
          "name": "newOwner",
          "type": "address"
        }
      ],
      "name": "transferOwnership",
      "outputs": [],
      "stateMutability": "nonpayable",
      "type": "function"
    }
  ],
  "bytecode": "0x608060405234801562000010575f80fd5b5060405162001b7538038062001b75833981016040819052620000339162000130565b60405180604001604052806008815260200167283937b134b730b960c11b8152506040518060400160405280600381526020016250524f60e81b815250815f9081620000809190620001fd565b5060016200008f8282620001fd565b505050620000ac620000a6620000db60201b60201c565b620000df565b600880546001600160a01b039092166001600160a01b03199283161790556009805490911633179055620002c9565b3390565b600680546001600160a01b038381166001600160a01b0319831681179093556040519116919082907f8be0079c531659141344cd1fd0a4f28419497f9722a3daafe3b4186f6b6457e0905f90a35050565b5f6020828403121562000141575f80fd5b81516001600160a01b038116811462000158575f80fd5b9392505050565b634e487b7160e01b5f52604160045260245ffd5b600181811c908216806200018857607f821691505b602082108103620001a757634e487b7160e01b5f52602260045260245ffd5b50919050565b601f821115620001f857805f5260205f20601f840160051c81016020851015620001d45750805b601f840160051c820191505b81811015620001f5575f8155600101620001e0565b50505b505050565b81516001600160401b038111156200021957620002196200015f565b62000231816200022a845462000173565b84620001ad565b602080601f83116001811462000267575f84156200024f5750858301515b5f19600386901b1c1916600185901b178555620002c1565b5f85815260208120601f198616915b82811015620002975788860151825594840194600190910190840162000276565b5085821015620002b557878501515f19600388901b60f8161c191681555b505060018460011b0185555b505050505050565b61189e80620002d75f395ff3fe608060405234801561000f575f80fd5b5060043610610148575f3560e01c80638da5cb5b116100bf578063b88d4fde11610079578063b88d4fde146102c7578063c87b56dd146102da578063e985e9c5146102ed578063eacabe1414610328578063f2fde38b1461033b578063f851a4401461034e575f80fd5b80638da5cb5b146102535780638f2839701461026457806395d89b4114610277578063a22cb4651461027f578063a5ce413a14610292578063b4a99a4e146102b4575f80fd5b806323b872dd1161011057806323b872dd146101dc57806342842e0e146101ef5780636352211e1461020257806370a0823114610215578063715018a61461023657806385e3c1d41461023e575f80fd5b806301ffc9a71461014c57806306fdde0314610174578063081812fc14610189578063095ea7b3146101b45780630bb78ec1146101c9575b5f80fd5b61015f61015a36600461125a565b610361565b60405190151581526020015b60405180910390f35b61017c6103b2565b60405161016b91906112bf565b61019c6101973660046112d1565b610441565b6040516001600160a01b03909116815260200161016b565b6101c76101c23660046112fe565b610466565b005b61017c6101d73660046112d1565b61057f565b6101c76101ea366004611326565b610616565b6101c76101fd366004611326565b610647565b61019c6102103660046112d1565b610661565b61022861022336600461135f565b6106c0565b60405190815260200161016b565b6101c7610744565b610246610757565b60405161016b9190611378565b6006546001600160a01b031661019c565b61019c61027236600461135f565b610845565b61017c6108d2565b6101c761028d3660046113ec565b6108e1565b61015f6102a03660046112d1565b600b6020525f908152604090205460ff1681565b60095461019c906001600160a01b031681565b6101c76102d53660046114ac565b6108f0565b61017c6102e83660046112d1565b610928565b61015f6102fb366004611523565b6001600160a01b039182165f90815260056020908152604080832093909416825291909152205460ff1690565b610228610336366004611554565b610a23565b6101c761034936600461135f565b610adb565b60085461019c906001600160a01b031681565b5f6001600160e01b031982166380ac58cd60e01b148061039157506001600160e01b03198216635b5e139f60e01b145b806103ac57506301ffc9a760e01b6001600160e01b03198316145b92915050565b60605f80546103c0906115b2565b80601f01602080910402602001604051908101604052809291908181526020018280546103ec906115b2565b80156104375780601f1061040e57610100808354040283529160200191610437565b820191905f5260205f20905b81548152906001019060200180831161041a57829003601f168201915b5050505050905090565b5f61044b82610b54565b505f908152600460205260409020546001600160a01b031690565b5f61047082610661565b9050806001600160a01b0316836001600160a01b0316036104e25760405162461bcd60e51b815260206004820152602160248201527f4552433732313a20617070726f76616c20746f2063757272656e74206f776e656044820152603960f91b60648201526084015b60405180910390fd5b336001600160a01b03821614806104fe57506104fe81336102fb565b6105705760405162461bcd60e51b815260206004820152603d60248201527f4552433732313a20617070726f76652063616c6c6572206973206e6f7420746f60448201527f6b656e206f776e6572206f7220617070726f76656420666f7220616c6c00000060648201526084016104d9565b61057a8383610bb2565b505050565b600a6020525f908152604090208054610597906115b2565b80601f01602080910402602001604051908101604052809291908181526020018280546105c3906115b2565b801561060e5780601f106105e55761010080835404028352916020019161060e565b820191905f5260205f20905b8154815290600101906020018083116105f157829003601f168201915b505050505081565b6106203382610c1f565b61063c5760405162461bcd60e51b81526004016104d9906115ea565b61057a838383610c9c565b61057a83838360405180602001604052805f8152506108f0565b5f818152600260205260408120546001600160a01b0316806103ac5760405162461bcd60e51b8152602060048201526018602482015277115490cdcc8c4e881a5b9d985b1a59081d1bdad95b88125160421b60448201526064016104d9565b5f6001600160a01b0382166107295760405162461bcd60e51b815260206004820152602960248201527f4552433732313a2061646472657373207a65726f206973206e6f7420612076616044820152683634b21037bbb732b960b91b60648201526084016104d9565b506001600160a01b03165f9081526003602052604090205490565b61074c610dfe565b6107555f610e58565b565b60605f61076360075490565b90505f808267ffffffffffffffff81111561078057610780611425565b6040519080825280602002602001820160405280156107c557816020015b604080518082019091525f81526060602082015281526020019060019003908161079e5790505b5090505f5b8381101561083d575f838152600b602052604090205460ff1615610828575f6107f284610928565b905060405180604001604052808581526020018281525083858151811061081b5761081b611637565b6020026020010181905250505b826108328161164b565b9350506001016107ca565b509392505050565b6009545f906001600160a01b031633146108ad5760405162461bcd60e51b8152602060048201526024808201527f4f6e6c792061646d696e2063616e20706572666f726d20746869732066756e636044820152633a34b7b760e11b60648201526084016104d9565b50600880546001600160a01b0319166001600160a01b0383169081179091555b919050565b6060600180546103c0906115b2565b6108ec338383610ea9565b5050565b6108fa3383610c1f565b6109165760405162461bcd60e51b81526004016104d9906115ea565b61092284848484610f76565b50505050565b5f818152600b602052604090205460609060ff166109885760405162461bcd60e51b815260206004820152601a60248201527f43657274696669636174696f6e204944206e6f7420657869737400000000000060448201526064016104d9565b5f828152600a6020526040902080546109a0906115b2565b80601f01602080910402602001604051908101604052809291908181526020018280546109cc906115b2565b8015610a175780601f106109ee57610100808354040283529160200191610a17565b820191905f5260205f20905b8154815290600101906020018083116109fa57829003601f168201915b50505050509050919050565b6008545f906001600160a01b03163314610a8d5760405162461bcd60e51b815260206004820152602560248201527f6f6e6c792061646d696e2063616e204d696e74204e465420436572746966696360448201526430ba34b7b760d91b60648201526084016104d9565b5f610a9760075490565b9050610aa38482610fa9565b610ab1600780546001019055565b610abb8184611131565b5f818152600b60205260409020805460ff19166001179055905092915050565b610ae3610dfe565b6001600160a01b038116610b485760405162461bcd60e51b815260206004820152602660248201527f4f776e61626c653a206e6577206f776e657220697320746865207a65726f206160448201526564647265737360d01b60648201526084016104d9565b610b5181610e58565b50565b5f818152600260205260409020546001600160a01b0316610b515760405162461bcd60e51b8152602060048201526018602482015277115490cdcc8c4e881a5b9d985b1a59081d1bdad95b88125160421b60448201526064016104d9565b5f81815260046020526040902080546001600160a01b0319166001600160a01b0384169081179091558190610be682610661565b6001600160a01b03167f8c5be1e5ebec7d5bd14f71427d1e84f3dd0314c0f7b2291e5b200ac8c7c3b92560405160405180910390a45050565b5f80610c2a83610661565b9050806001600160a01b0316846001600160a01b03161480610c7057506001600160a01b038082165f9081526005602090815260408083209388168352929052205460ff165b80610c945750836001600160a01b0316610c8984610441565b6001600160a01b0316145b949350505050565b826001600160a01b0316610caf82610661565b6001600160a01b031614610cd55760405162461bcd60e51b81526004016104d99061166f565b6001600160a01b038216610d375760405162461bcd60e51b8152602060048201526024808201527f4552433732313a207472616e7366657220746f20746865207a65726f206164646044820152637265737360e01b60648201526084016104d9565b826001600160a01b0316610d4a82610661565b6001600160a01b031614610d705760405162461bcd60e51b81526004016104d99061166f565b5f81815260046020908152604080832080546001600160a01b03199081169091556001600160a01b038781168086526003855283862080545f1901905590871680865283862080546001019055868652600290945282852080549092168417909155905184937fddf252ad1be2c89b69c2b068fc378daa952ba7f163c4a11628f55a4df523b3ef91a4505050565b6006546001600160a01b031633146107555760405162461bcd60e51b815260206004820181905260248201527f4f776e61626c653a2063616c6c6572206973206e6f7420746865206f776e657260448201526064016104d9565b600680546001600160a01b038381166001600160a01b0319831681179093556040519116919082907f8be0079c531659141344cd1fd0a4f28419497f9722a3daafe3b4186f6b6457e0905f90a35050565b816001600160a01b0316836001600160a01b031603610f0a5760405162461bcd60e51b815260206004820152601960248201527f4552433732313a20617070726f766520746f2063616c6c65720000000000000060448201526064016104d9565b6001600160a01b038381165f81815260056020908152604080832094871680845294825291829020805460ff191686151590811790915591519182527f17307eab39ab6107e8899845ad3d59bd9653f200f220920489ca2b5937696c31910160405180910390a3505050565b610f81848484610c9c565b610f8d84848484611148565b6109225760405162461bcd60e51b81526004016104d9906116b4565b6001600160a01b038216610fff5760405162461bcd60e51b815260206004820181905260248201527f4552433732313a206d696e7420746f20746865207a65726f206164647265737360448201526064016104d9565b5f818152600260205260409020546001600160a01b0316156110635760405162461bcd60e51b815260206004820152601c60248201527f4552433732313a20746f6b656e20616c7265616479206d696e7465640000000060448201526064016104d9565b5f818152600260205260409020546001600160a01b0316156110c75760405162461bcd60e51b815260206004820152601c60248201527f4552433732313a20746f6b656e20616c7265616479206d696e7465640000000060448201526064016104d9565b6001600160a01b0382165f81815260036020908152604080832080546001019055848352600290915280822080546001600160a01b0319168417905551839291907fddf252ad1be2c89b69c2b068fc378daa952ba7f163c4a11628f55a4df523b3ef908290a45050565b5f828152600a6020526040902061057a8282611751565b5f6001600160a01b0384163b1561123a57604051630a85bd0160e11b81526001600160a01b0385169063150b7a029061118b903390899088908890600401611811565b6020604051808303815f875af19250505080156111c5575060408051601f3d908101601f191682019092526111c29181019061184d565b60015b611220573d8080156111f2576040519150601f19603f3d011682016040523d82523d5f602084013e6111f7565b606091505b5080515f036112185760405162461bcd60e51b81526004016104d9906116b4565b805181602001fd5b6001600160e01b031916630a85bd0160e11b149050610c94565b506001949350505050565b6001600160e01b031981168114610b51575f80fd5b5f6020828403121561126a575f80fd5b813561127581611245565b9392505050565b5f81518084525f5b818110156112a057602081850181015186830182015201611284565b505f602082860101526020601f19601f83011685010191505092915050565b602081525f611275602083018461127c565b5f602082840312156112e1575f80fd5b5035919050565b80356001600160a01b03811681146108cd575f80fd5b5f806040838503121561130f575f80fd5b611318836112e8565b946020939093013593505050565b5f805f60608486031215611338575f80fd5b611341846112e8565b925061134f602085016112e8565b9150604084013590509250925092565b5f6020828403121561136f575f80fd5b611275826112e8565b5f60208083018184528085518083526040925060408601915060408160051b8701018488015f5b838110156113de57888303603f190185528151805184528701518784018790526113cb8785018261127c565b958801959350509086019060010161139f565b509098975050505050505050565b5f80604083850312156113fd575f80fd5b611406836112e8565b91506020830135801515811461141a575f80fd5b809150509250929050565b634e487b7160e01b5f52604160045260245ffd5b5f67ffffffffffffffff8084111561145357611453611425565b604051601f8501601f19908116603f0116810190828211818310171561147b5761147b611425565b81604052809350858152868686011115611493575f80fd5b858560208301375f602087830101525050509392505050565b5f805f80608085870312156114bf575f80fd5b6114c8856112e8565b93506114d6602086016112e8565b925060408501359150606085013567ffffffffffffffff8111156114f8575f80fd5b8501601f81018713611508575f80fd5b61151787823560208401611439565b91505092959194509250565b5f8060408385031215611534575f80fd5b61153d836112e8565b915061154b602084016112e8565b90509250929050565b5f8060408385031215611565575f80fd5b61156e836112e8565b9150602083013567ffffffffffffffff811115611589575f80fd5b8301601f81018513611599575f80fd5b6115a885823560208401611439565b9150509250929050565b600181811c908216806115c657607f821691505b6020821081036115e457634e487b7160e01b5f52602260045260245ffd5b50919050565b6020808252602d908201527f4552433732313a2063616c6c6572206973206e6f7420746f6b656e206f776e6560408201526c1c881bdc88185c1c1c9bdd9959609a1b606082015260800190565b634e487b7160e01b5f52603260045260245ffd5b5f6001820161166857634e487b7160e01b5f52601160045260245ffd5b5060010190565b60208082526025908201527f4552433732313a207472616e736665722066726f6d20696e636f72726563742060408201526437bbb732b960d91b606082015260800190565b60208082526032908201527f4552433732313a207472616e7366657220746f206e6f6e20455243373231526560408201527131b2b4bb32b91034b6b83632b6b2b73a32b960711b606082015260800190565b601f82111561057a57805f5260205f20601f840160051c8101602085101561172b5750805b601f840160051c820191505b8181101561174a575f8155600101611737565b5050505050565b815167ffffffffffffffff81111561176b5761176b611425565b61177f8161177984546115b2565b84611706565b602080601f8311600181146117b2575f841561179b5750858301515b5f19600386901b1c1916600185901b178555611809565b5f85815260208120601f198616915b828110156117e0578886015182559484019460019091019084016117c1565b50858210156117fd57878501515f19600388901b60f8161c191681555b505060018460011b0185555b505050505050565b6001600160a01b03858116825284166020820152604081018390526080606082018190525f906118439083018461127c565b9695505050505050565b5f6020828403121561185d575f80fd5b81516112758161124556fea2646970667358221220eca4a8d20c5deea4b2f6a087ce5735b2467448c3320651753501325c31a99a1a64736f6c63430008180033",
  "linkReferences": {},
  "deployedLinkReferences": {}
}