{
  "_format": "hh-sol-artifact-1",
  "contractName": "PROBINAR",
  "sourceName": "contracts/NftMinter.sol",
  "abi": [
    {
      "inputs": [
        {
          "internalType": "address",
          "name": "_admin",
          "type": "address"
        }
      ],
      "stateMutability": "nonpayable",
      "type": "constructor"
    },
    {
      "anonymous": false,
      "inputs": [
        {
          "indexed": true,
          "internalType": "address",
          "name": "owner",
          "type": "address"
        },
        {
          "indexed": true,
          "internalType": "address",
          "name": "approved",
          "type": "address"
        },
        {
          "indexed": true,
          "internalType": "uint256",
          "name": "tokenId",
          "type": "uint256"
        }
      ],
      "name": "Approval",
      "type": "event"
    },
    {
      "anonymous": false,
      "inputs": [
        {
          "indexed": true,
          "internalType": "address",
          "name": "owner",
          "type": "address"
        },
        {
          "indexed": true,
          "internalType": "address",
          "name": "operator",
          "type": "address"
        },
        {
          "indexed": false,
          "internalType": "bool",
          "name": "approved",
          "type": "bool"
        }
      ],
      "name": "ApprovalForAll",
      "type": "event"
    },
    {
      "anonymous": false,
      "inputs": [
        {
          "indexed": true,
          "internalType": "address",
          "name": "previousOwner",
          "type": "address"
        },
        {
          "indexed": true,
          "internalType": "address",
          "name": "newOwner",
          "type": "address"
        }
      ],
      "name": "OwnershipTransferred",
      "type": "event"
    },
    {
      "anonymous": false,
      "inputs": [
        {
          "indexed": true,
          "internalType": "address",
          "name": "from",
          "type": "address"
        },
        {
          "indexed": true,
          "internalType": "address",
          "name": "to",
          "type": "address"
        },
        {
          "indexed": true,
          "internalType": "uint256",
          "name": "tokenId",
          "type": "uint256"
        }
      ],
      "name": "Transfer",
      "type": "event"
    },
    {
      "inputs": [],
      "name": "Owner",
      "outputs": [
        {
          "internalType": "address",
          "name": "",
          "type": "address"
        }
      ],
      "stateMutability": "view",
      "type": "function"
    },
    {
      "inputs": [
        {
          "internalType": "uint256",
          "name": "",
          "type": "uint256"
        }
      ],
      "name": "_tokenURIs",
      "outputs": [
        {
          "internalType": "string",
          "name": "",
          "type": "string"
        }
      ],
      "stateMutability": "view",
      "type": "function"
    },
    {
      "inputs": [],
      "name": "admin",
      "outputs": [
        {
          "internalType": "address",
          "name": "",
          "type": "address"
        }
      ],
      "stateMutability": "view",
      "type": "function"
    },
    {
      "inputs": [
        {
          "internalType": "address",
          "name": "to",
          "type": "address"
        },
        {
          "internalType": "uint256",
          "name": "tokenId",
          "type": "uint256"
        }
      ],
      "name": "approve",
      "outputs": [],
      "stateMutability": "nonpayable",
      "type": "function"
    },
    {
      "inputs": [
        {
          "internalType": "address",
          "name": "owner",
          "type": "address"
        }
      ],
      "name": "balanceOf",
      "outputs": [
        {
          "internalType": "uint256",
          "name": "",
          "type": "uint256"
        }
      ],
      "stateMutability": "view",
      "type": "function"
    },
    {
      "inputs": [
        {
          "internalType": "address",
          "name": "_admin",
          "type": "address"
        }
      ],
      "name": "changeAdmin",
      "outputs": [
        {
          "internalType": "address",
          "name": "",
          "type": "address"
        }
      ],
      "stateMutability": "nonpayable",
      "type": "function"
    },
    {
      "inputs": [],
      "name": "getAllToken",
      "outputs": [
        {
          "components": [
            {
              "internalType": "uint256",
              "name": "id",
              "type": "uint256"
            },
            {
              "internalType": "string",
              "name": "uri",
              "type": "string"
            }
          ],
          "internalType": "struct PROBINAR.RenderToken[]",
          "name": "",
          "type": "tuple[]"
        }
      ],
      "stateMutability": "view",
      "type": "function"
    },
    {
      "inputs": [
        {
          "internalType": "uint256",
          "name": "tokenId",
          "type": "uint256"
        }
      ],
      "name": "getApproved",
      "outputs": [
        {
          "internalType": "address",
          "name": "",
          "type": "address"
        }
      ],
      "stateMutability": "view",
      "type": "function"
    },
    {
      "inputs": [
        {
          "internalType": "address",
          "name": "owner",
          "type": "address"
        },
        {
          "internalType": "address",
          "name": "operator",
          "type": "address"
        }
      ],
      "name": "isApprovedForAll",
      "outputs": [
        {
          "internalType": "bool",
          "name": "",
          "type": "bool"
        }
      ],
      "stateMutability": "view",
      "type": "function"
    },
    {
      "inputs": [
        {
          "internalType": "uint256",
          "name": "",
          "type": "uint256"
        }
      ],
      "name": "isCertificateValid",
      "outputs": [
        {
          "internalType": "bool",
          "name": "",
          "type": "bool"
        }
      ],
      "stateMutability": "view",
      "type": "function"
    },
    {
      "inputs": [
        {
          "internalType": "address",
          "name": "recepient",
          "type": "address"
        },
        {
          "internalType": "string",
          "name": "uri",
          "type": "string"
        }
      ],
      "name": "mintNFT",
      "outputs": [
        {
          "internalType": "uint256",
          "name": "",
          "type": "uint256"
        }
      ],
      "stateMutability": "nonpayable",
      "type": "function"
    },
    {
      "inputs": [],
      "name": "name",
      "outputs": [
        {
          "internalType": "string",
          "name": "",
          "type": "string"
        }
      ],
      "stateMutability": "view",
      "type": "function"
    },
    {
      "inputs": [],
      "name": "owner",
      "outputs": [
        {
          "internalType": "address",
          "name": "",
          "type": "address"
        }
      ],
      "stateMutability": "view",
      "type": "function"
    },
    {
      "inputs": [
        {
          "internalType": "uint256",
          "name": "tokenId",
          "type": "uint256"
        }
      ],
      "name": "ownerOf",
      "outputs": [
        {
          "internalType": "address",
          "name": "",
          "type": "address"
        }
      ],
      "stateMutability": "view",
      "type": "function"
    },
    {
      "inputs": [],
      "name": "renounceOwnership",
      "outputs": [],
      "stateMutability": "nonpayable",
      "type": "function"
    },
    {
      "inputs": [
        {
          "internalType": "address",
          "name": "from",
          "type": "address"
        },
        {
          "internalType": "address",
          "name": "to",
          "type": "address"
        },
        {
          "internalType": "uint256",
          "name": "tokenId",
          "type": "uint256"
        }
      ],
      "name": "safeTransferFrom",
      "outputs": [],
      "stateMutability": "nonpayable",
      "type": "function"
    },
    {
      "inputs": [
        {
          "internalType": "address",
          "name": "from",
          "type": "address"
        },
        {
          "internalType": "address",
          "name": "to",
          "type": "address"
        },
        {
          "internalType": "uint256",
          "name": "tokenId",
          "type": "uint256"
        },
        {
          "internalType": "bytes",
          "name": "data",
          "type": "bytes"
        }
      ],
      "name": "safeTransferFrom",
      "outputs": [],
      "stateMutability": "nonpayable",
      "type": "function"
    },
    {
      "inputs": [
        {
          "internalType": "address",
          "name": "operator",
          "type": "address"
        },
        {
          "internalType": "bool",
          "name": "approved",
          "type": "bool"
        }
      ],
      "name": "setApprovalForAll",
      "outputs": [],
      "stateMutability": "nonpayable",
      "type": "function"
    },
    {
      "inputs": [
        {
          "internalType": "bytes4",
          "name": "interfaceId",
          "type": "bytes4"
        }
      ],
      "name": "supportsInterface",
      "outputs": [
        {
          "internalType": "bool",
          "name": "",
          "type": "bool"
        }
      ],
      "stateMutability": "view",
      "type": "function"
    },
    {
      "inputs": [],
      "name": "symbol",
      "outputs": [
        {
          "internalType": "string",
          "name": "",
          "type": "string"
        }
      ],
      "stateMutability": "view",
      "type": "function"
    },
    {
      "inputs": [
        {
          "internalType": "uint256",
          "name": "CertificationID",
          "type": "uint256"
        }
      ],
      "name": "tokenURI",
      "outputs": [
        {
          "internalType": "string",
          "name": "",
          "type": "string"
        }
      ],
      "stateMutability": "view",
      "type": "function"
    },
    {
      "inputs": [
        {
          "internalType": "address",
          "name": "from",
          "type": "address"
        },
        {
          "internalType": "address",
          "name": "to",
          "type": "address"
        },
        {
          "internalType": "uint256",
          "name": "tokenId",
          "type": "uint256"
        }
      ],
      "name": "transferFrom",
      "outputs": [],
      "stateMutability": "nonpayable",
      "type": "function"
    },
    {
      "inputs": [
        {
          "internalType": "address",
          "name": "newOwner",
          "type": "address"
        }
      ],
      "name": "transferOwnership",
      "outputs": [],
      "stateMutability": "nonpayable",
      "type": "function"
    }
  ],
  "bytecode": "0x60806040523480156200001157600080fd5b5060405162001a8b38038062001a8b8339810160408190526200003491620001dd565b6040805180820182526008815267283937b134b730b960c11b60208083019182528351808501909452600384526250524f60e81b9084015281519192916200007f9160009162000137565b5080516200009590600190602084019062000137565b505050620000b2620000ac620000e160201b60201c565b620000e5565b600880546001600160a01b039092166001600160a01b031992831617905560098054909116331790556200024a565b3390565b600680546001600160a01b038381166001600160a01b0319831681179093556040519116919082907f8be0079c531659141344cd1fd0a4f28419497f9722a3daafe3b4186f6b6457e090600090a35050565b82805462000145906200020d565b90600052602060002090601f016020900481019282620001695760008555620001b4565b82601f106200018457805160ff1916838001178555620001b4565b82800160010185558215620001b4579182015b82811115620001b457825182559160200191906001019062000197565b50620001c2929150620001c6565b5090565b5b80821115620001c25760008155600101620001c7565b600060208284031215620001ef578081fd5b81516001600160a01b038116811462000206578182fd5b9392505050565b6002810460018216806200022257607f821691505b602082108114156200024457634e487b7160e01b600052602260045260246000fd5b50919050565b611831806200025a6000396000f3fe608060405234801561001057600080fd5b506004361061014d5760003560e01c80638da5cb5b116100c3578063b88d4fde1161007c578063b88d4fde1461029f578063c87b56dd146102b2578063e985e9c5146102c5578063eacabe14146102d8578063f2fde38b146102eb578063f851a440146102fe5761014d565b80638da5cb5b1461024e5780638f2839701461025657806395d89b4114610269578063a22cb46514610271578063a5ce413a14610284578063b4a99a4e146102975761014d565b806323b872dd1161011557806323b872dd146101d857806342842e0e146101eb5780636352211e146101fe57806370a0823114610211578063715018a61461023157806385e3c1d4146102395761014d565b806301ffc9a71461015257806306fdde031461017b578063081812fc14610190578063095ea7b3146101b05780630bb78ec1146101c5575b600080fd5b610165610160366004611300565b610306565b604051610172919061145d565b60405180910390f35b61018361034e565b6040516101729190611468565b6101a361019e366004611338565b6103e0565b604051610172919061139b565b6101c36101be3660046112d7565b610407565b005b6101836101d3366004611338565b6104a8565b6101c36101e636600461118a565b610542565b6101c36101f936600461118a565b61057a565b6101a361020c366004611338565b610595565b61022461021f366004611137565b6105ca565b604051610172919061172b565b6101c361060e565b610241610622565b60405161017291906113ec565b6101a3610731565b6101a3610264366004611137565b610740565b610183610790565b6101c361027f36600461123e565b61079f565b610165610292366004611338565b6107b5565b6101a36107ca565b6101c36102ad3660046111c5565b6107d9565b6101836102c0366004611338565b610818565b6101656102d3366004611158565b6108e7565b6102246102e6366004611278565b610915565b6101c36102f9366004611137565b61098f565b6101a36109c9565b60006001600160e01b031982166380ac58cd60e01b148061033757506001600160e01b03198216635b5e139f60e01b145b806103465750610346826109d8565b90505b919050565b60606000805461035d90611763565b80601f016020809104026020016040519081016040528092919081815260200182805461038990611763565b80156103d65780601f106103ab576101008083540402835291602001916103d6565b820191906000526020600020905b8154815290600101906020018083116103b957829003601f168201915b5050505050905090565b60006103eb826109f1565b506000908152600460205260409020546001600160a01b031690565b600061041282610595565b9050806001600160a01b0316836001600160a01b0316141561044f5760405162461bcd60e51b8152600401610446906114fe565b60405180910390fd5b806001600160a01b0316610461610a16565b6001600160a01b0316148061047d575061047d816102d3610a16565b6104995760405162461bcd60e51b81526004016104469061157a565b6104a38383610a1a565b505050565b600a60205260009081526040902080546104c190611763565b80601f01602080910402602001604051908101604052809291908181526020018280546104ed90611763565b801561053a5780601f1061050f5761010080835404028352916020019161053a565b820191906000526020600020905b81548152906001019060200180831161051d57829003601f168201915b505050505081565b61055361054d610a16565b82610a88565b61056f5760405162461bcd60e51b8152600401610446906115fc565b6104a3838383610ae7565b6104a3838383604051806020016040528060008152506107d9565b6000818152600260205260408120546001600160a01b0316806103465760405162461bcd60e51b815260040161044690611659565b60006001600160a01b0382166105f25760405162461bcd60e51b8152600401610446906116ed565b506001600160a01b031660009081526003602052604090205490565b610616610c1a565b6106206000610c59565b565b606060006106306007610cab565b90506000808267ffffffffffffffff81111561065c57634e487b7160e01b600052604160045260246000fd5b60405190808252806020026020018201604052801561069557816020015b610682610ffd565b81526020019060019003908161067a5790505b50905060005b83811015610729576000838152600b602052604090205460ff16156107095760006106c584610818565b90506040518060400160405280858152602001828152508385815181106106fc57634e487b7160e01b600052603260045260246000fd5b6020026020010181905250505b826107138161179e565b93505080806107219061179e565b91505061069b565b509250505090565b6006546001600160a01b031690565b6009546000906001600160a01b0316331461076d5760405162461bcd60e51b8152600401610446906115b8565b50600880546001600160a01b0319166001600160a01b0392831617908190551690565b60606001805461035d90611763565b6107b16107aa610a16565b8383610caf565b5050565b600b6020526000908152604090205460ff1681565b6009546001600160a01b031681565b6107ea6107e4610a16565b83610a88565b6108065760405162461bcd60e51b81526004016104469061155b565b61081284848484610d52565b50505050565b6000818152600b602052604090205460609060ff166108495760405162461bcd60e51b815260040161044690611678565b6000828152600a60205260409020805461086290611763565b80601f016020809104026020016040519081016040528092919081815260200182805461088e90611763565b80156108db5780601f106108b0576101008083540402835291602001916108db565b820191906000526020600020905b8154815290600101906020018083116108be57829003601f168201915b50505050509050919050565b6001600160a01b03918216600090815260056020908152604080832093909416825291909152205460ff1690565b6008546000906001600160a01b031633146109425760405162461bcd60e51b8152600401610446906114b9565b600061094e6007610cab565b905061095a8482610d85565b6109646007610e6c565b61096e8184610e75565b6000818152600b60205260409020805460ff19166001179055905092915050565b610997610c1a565b6001600160a01b0381166109bd5760405162461bcd60e51b815260040161044690611599565b6109c681610c59565b50565b6008546001600160a01b031681565b6001600160e01b031981166301ffc9a760e01b14919050565b6109fa81610e94565b6109c65760405162461bcd60e51b81526004016104469061147b565b3390565b600081815260046020526040902080546001600160a01b0319166001600160a01b0384169081179091558190610a4f82610595565b6001600160a01b03167f8c5be1e5ebec7d5bd14f71427d1e84f3dd0314c0f7b2291e5b200ac8c7c3b92560405160405180910390a45050565b600080610a9483610595565b9050806001600160a01b0316846001600160a01b03161480610abb5750610abb81856108e7565b80610adf5750836001600160a01b0316610ad4846103e0565b6001600160a01b0316145b949350505050565b826001600160a01b0316610afa82610595565b6001600160a01b031614610b205760405162461bcd60e51b81526004016104469061161b565b6001600160a01b038216610b465760405162461bcd60e51b81526004016104469061170c565b610b518383836104a3565b610b5c600082610a1a565b6001600160a01b0383166000908152600360205260408120805460019290610b8590849061174c565b90915550506001600160a01b0382166000908152600360205260408120805460019290610bb3908490611734565b909155505060008181526002602052604080822080546001600160a01b0319166001600160a01b0386811691821790925591518493918716917fddf252ad1be2c89b69c2b068fc378daa952ba7f163c4a11628f55a4df523b3ef91a46104a38383836104a3565b610c22610a16565b6001600160a01b0316610c33610731565b6001600160a01b0316146106205760405162461bcd60e51b81526004016104469061163a565b600680546001600160a01b038381166001600160a01b0319831681179093556040519116919082907f8be0079c531659141344cd1fd0a4f28419497f9722a3daafe3b4186f6b6457e090600090a35050565b5490565b816001600160a01b0316836001600160a01b03161415610ce15760405162461bcd60e51b8152600401610446906116af565b6001600160a01b0383811660008181526005602090815260408083209487168084529490915290819020805460ff1916851515179055517f17307eab39ab6107e8899845ad3d59bd9653f200f220920489ca2b5937696c3190610d4590859061145d565b60405180910390a3505050565b610d5d848484610ae7565b610d6984848484610eb1565b6108125760405162461bcd60e51b81526004016104469061153c565b6001600160a01b038216610dab5760405162461bcd60e51b81526004016104469061151d565b610db481610e94565b15610dd15760405162461bcd60e51b8152600401610446906116ce565b610ddd600083836104a3565b6001600160a01b0382166000908152600360205260408120805460019290610e06908490611734565b909155505060008181526002602052604080822080546001600160a01b0319166001600160a01b03861690811790915590518392907fddf252ad1be2c89b69c2b068fc378daa952ba7f163c4a11628f55a4df523b3ef908290a46107b1600083836104a3565b80546001019055565b6000828152600a6020908152604090912082516104a392840190611017565b6000908152600260205260409020546001600160a01b0316151590565b6000610ec5846001600160a01b0316610fcc565b15610fc157836001600160a01b031663150b7a02610ee1610a16565b8786866040518563ffffffff1660e01b8152600401610f0394939291906113af565b602060405180830381600087803b158015610f1d57600080fd5b505af1925050508015610f4d575060408051601f3d908101601f19168201909252610f4a9181019061131c565b60015b610fa7573d808015610f7b576040519150601f19603f3d011682016040523d82523d6000602084013e610f80565b606091505b508051610f9f5760405162461bcd60e51b81526004016104469061149a565b805181602001fd5b6001600160e01b031916630a85bd0160e11b149050610adf565b506001949350505050565b600080826001600160a01b0316803b806020016040519081016040528181526000908060200190933c511192915050565b604051806040016040528060008152602001606081525090565b82805461102390611763565b90600052602060002090601f016020900481019282611045576000855561108b565b82601f1061105e57805160ff191683800117855561108b565b8280016001018555821561108b579182015b8281111561108b578251825591602001919060010190611070565b5061109792915061109b565b5090565b5b80821115611097576000815560010161109c565b600067ffffffffffffffff808411156110cb576110cb6117cf565b604051601f8501601f1916810160200182811182821017156110ef576110ef6117cf565b60405284815291508183850186101561110757600080fd5b8484602083013760006020868301015250509392505050565b80356001600160a01b038116811461034957600080fd5b600060208284031215611148578081fd5b61115182611120565b9392505050565b6000806040838503121561116a578081fd5b61117383611120565b915061118160208401611120565b90509250929050565b60008060006060848603121561119e578081fd5b6111a784611120565b92506111b560208501611120565b9150604084013590509250925092565b600080600080608085870312156111da578081fd5b6111e385611120565b93506111f160208601611120565b925060408501359150606085013567ffffffffffffffff811115611213578182fd5b8501601f81018713611223578182fd5b611232878235602084016110b0565b91505092959194509250565b60008060408385031215611250578182fd5b61125983611120565b91506020830135801515811461126d578182fd5b809150509250929050565b6000806040838503121561128a578182fd5b61129383611120565b9150602083013567ffffffffffffffff8111156112ae578182fd5b8301601f810185136112be578182fd5b6112cd858235602084016110b0565b9150509250929050565b600080604083850312156112e9578182fd5b6112f283611120565b946020939093013593505050565b600060208284031215611311578081fd5b8135611151816117e5565b60006020828403121561132d578081fd5b8151611151816117e5565b600060208284031215611349578081fd5b5035919050565b60008151808452815b8181101561137557602081850181015186830182015201611359565b818111156113865782602083870101525b50601f01601f19169290920160200192915050565b6001600160a01b0391909116815260200190565b6001600160a01b03858116825284166020820152604081018390526080606082018190526000906113e290830184611350565b9695505050505050565b60208082528251828201819052600091906040908185019080840286018301878501865b8381101561144f57888303603f1901855281518051845287015187840187905261143c87850182611350565b9588019593505090860190600101611410565b509098975050505050505050565b901515815260200190565b6000602082526111516020830184611350565b6020808252600590820152644f5a3a323560d81b604082015260600190565b60208082526005908201526427ad1d191b60d91b604082015260600190565b60208082526025908201527f6f6e6c792061646d696e2063616e204d696e74204e465420436572746966696360408201526430ba34b7b760d91b606082015260800190565b60208082526005908201526413d68e8c4d60da1b604082015260600190565b60208082526005908201526404f5a3a32360dc1b604082015260600190565b60208082526005908201526409eb47462760db1b604082015260600190565b6020808252600590820152644f5a3a313760d81b604082015260600190565b6020808252600590820152644f5a3a313560d81b604082015260600190565b6020808252600590820152644f5a3a333160d81b604082015260600190565b60208082526024908201527f4f6e6c792061646d696e2063616e20706572666f726d20746869732066756e636040820152633a34b7b760e11b606082015260800190565b60208082526005908201526427ad1d189b60d91b604082015260600190565b60208082526005908201526427ad1d191960d91b604082015260600190565b60208082526005908201526404f5a3a33360dc1b604082015260600190565b6020808252600590820152644f5a3a313360d81b604082015260600190565b6020808252601a908201527f43657274696669636174696f6e204944206e6f74206578697374000000000000604082015260600190565b60208082526005908201526413d68e8c8d60da1b604082015260600190565b6020808252600590820152644f5a3a323160d81b604082015260600190565b60208082526005908201526427ad1d189960d91b604082015260600190565b6020808252600590820152644f5a3a323360d81b604082015260600190565b90815260200190565b60008219821115611747576117476117b9565b500190565b60008282101561175e5761175e6117b9565b500390565b60028104600182168061177757607f821691505b6020821081141561179857634e487b7160e01b600052602260045260246000fd5b50919050565b60006000198214156117b2576117b26117b9565b5060010190565b634e487b7160e01b600052601160045260246000fd5b634e487b7160e01b600052604160045260246000fd5b6001600160e01b0319811681146109c657600080fdfea26469706673582212205f771a5d39709887c065488fef2399df993b1db4e2cf01f8de2b317d1a2e40f264736f6c63430008000033",
  "linkReferences": {},
  "deployedLinkReferences": {}
}